:020000040800F2
:1000000000000A20FDE50008C1050108C50501083A
:100010004DE600084DE600084DE60008000000002F
:100020000000000000000000000000004DE6000895
:10003000C9050108000000004DE60008CD050108D3
:100040004DE600084DE600084DE600084DE60008C4
:100050004DE600084DE600084DE600081D060108C3
:10006000010601084DE60008150601084DE60008E6
:100070004DE600084DE600084DE600084DE6000894
:100080004DE600084DE600084DE600084DE6000884
:100090004DE600084DE600084DE600084DE6000874
:1000A0004DE600084DE600084DE60008D1050108C0
:1000B000DD0501084DE60008F50501084DE60008DC
:1000C0004DE600084DE600084DE600084DE6000844
:1000D0004DE600084DE600084DE600084DE6000834
:1000E0004DE600084DE600084DE600084DE6000824
:1000F0004DE600084DE600084DE60008000000004F
:100100004DE60008090601084DE600084DE6000826
:100110004DE600084DE600084DE600088D46000853
:100120004DE600084DE600084DE600084DE60008E3
:100130004DE600084DE600084DE600084DE60008D3
:100140004DE600084DE600084DE60008E905010807
:100150004DE600084DE600084DE600084DE60008B3
:100160004DE600084DE600084DE600084DE60008A3
:100170004DE600084DE600084DE6000800000000CE
:100180004DE600084DE600084DE600084DE6000883
:100190004DE600084DE600080000000000000000E9
:1001A00000000000000000004DE600084DE60008D9
:1001B0004DE600084DE600084DE60008000000008E
:1001C00010B5054C237833B9044B13B10448AFF391
:1001D00000800123237010BD700E0020000000007D
:1001E000D0B3010808B5034B1BB103490348AFF373
:1001F000008008BD00000000740E0020D0B301088C
:10020000034613F8012B002AFBD1181A0138704756
:1002100001F0FF01102A2BDB10F0070F08D010F8B7
:10022000013B013A8B422DD010F0070F42B3F6D1BB
:10023000F0B441EA012141EA014122F007047FF0D4
:1002400000070023F0E80256083C85EA010586EA2B
:10025000010685FA47F5A3FA87F586FA47F6A5FA67
:1002600087F68EB9EED1F0BC01F0FF0102F0070273
:1002700032B110F8013B013A83EA010313B1F8D11E
:100280000020704701387047002D06BF35460338FF
:10029000073815F0010F07D1013015F4807F02BF38
:1002A000013015F4C03F0130F0BC0138704700BF89
:1002B00081F0004102E000BF83F0004330B54FEA17
:1002C00041044FEA430594EA050F08BF90EA020F84
:1002D0001FBF54EA000C55EA020C7FEA645C7FEA17
:1002E000655C00F0E2804FEA5454D4EB5555B8BF3A
:1002F0006D420CDD2C4480EA020281EA030382EAAB
:10030000000083EA010180EA020281EA0303362D3C
:1003100088BF30BD11F0004F4FEA01314FF4801C0F
:100320004CEA113102D0404261EB410113F0004F21
:100330004FEA03334CEA133302D0524263EB4303D8
:1003400094EA050F00F0A780A4F10104D5F1200E76
:100350000DDB02FA0EFC22FA05F2801841F10001D1
:1003600003FA0EF2801843FA05F359410EE0A5F1A5
:1003700020050EF1200E012A03FA0EFC28BF4CF0D6
:10038000020C43FA05F3C01851EBE37101F000458C
:1003900007D54FF0000EDCF1000C7EEB00006EEB99
:1003A0000101B1F5801F1BD3B1F5001F0CD3490823
:1003B0005FEA30004FEA3C0C04F101044FEA44527A
:1003C00012F5800F80F09A80BCF1004F08BF5FEA01
:1003D000500C50F1000041EB045141EA050130BDE1
:1003E0005FEA4C0C404141EB0101013C28BFB1F5F3
:1003F000801FE9D291F0000F04BF01460020B1FA3E
:1004000081F308BF2033A3F10B03B3F120020CDA10
:100410000C3208DD02F1140CC2F10C0201FA0CF0EE
:1004200021FA02F10CE002F11402D8BFC2F1200C53
:1004300001FA02F120FA0CFCDCBF41EA0C01904009
:10044000E41AA2BF01EB0451294330BD6FEA040452
:100450001F3C1CDA0C340EDC04F11404C4F120023D
:1004600020FA04F001FA02F340EA030021FA04F34F
:1004700045EA030130BDC4F10C04C4F1200220FAA6
:1004800002F001FA04F340EA0300294630BD21FAE4
:1004900004F0294630BD94F0000F83F4801306BFAA
:1004A00081F480110134013D4EE77FEA645C18BF9E
:1004B0007FEA655C29D094EA050F08BF90EA020F35
:1004C00005D054EA000C04BF1946104630BD91EA2D
:1004D000030F1EBF0021002030BD5FEA545C05D130
:1004E0004000494128BF41F0004130BD14F580046F
:1004F0003CBF01F5801130BD01F0004545F0FE41E3
:1005000041F470014FF0000030BD7FEA645C1ABF17
:10051000194610467FEA655C1CBF0B46024650EA4E
:10052000013406BF52EA033591EA030F41F400217A
:1005300030BD00BF90F0000F04BF0021704730B500
:100540004FF4806404F132044FF000054FF00001D5
:1005500050E700BF90F0000F04BF0021704730B596
:100560004FF4806404F1320410F0004548BF40426B
:100570004FF000013EE700BF42004FEAE2014FEAC0
:1005800031014FEA02701FBF12F07F4393F07F4F9B
:1005900081F06051704732F07F4208BF704793F09E
:1005A0007F4F04BF41F40021704730B54FF46074B1
:1005B00001F0004521F000411CE700BF50EA0102B4
:1005C00008BF704730B54FF000050AE050EA01025D
:1005D00008BF704730B511F0004502D5404261EBCD
:1005E00041014FF4806404F132045FEA915C3FF40E
:1005F000D8AE4FF003025FEADC0C18BF03325FEAAB
:10060000DC0C18BF033202EBDC02C2F1200300FA5B
:1006100003FC20FA02F001FA03FE40EA0E0021FA80
:1006200002F11444BDE600BF70B54FF0FF0C4CF46E
:10063000E06C1CEA11541DBF1CEA135594EA0C0F20
:1006400095EA0C0F00F0DEF82C4481EA030621EA5B
:100650004C5123EA4C5350EA013518BF52EA033596
:1006600041F4801143F4801338D0A0FB02CE4FF048
:100670000005E1FB02E506F00042E0FB03E54FF078
:100680000006E1FB03569CF0000F18BF4EF0010E70
:10069000A4F1FF04B6F5007F64F5407404D25FEA6C
:1006A0004E0E6D4146EB060642EAC62141EA55511F
:1006B0004FEAC52040EA5E504FEACE2EB4F1FD0C61
:1006C00088BFBCF5E06F1ED8BEF1004F08BF5FEADF
:1006D000500E50F1000041EB045170BD06F0004691
:1006E00046EA010140EA020081EA0301B4EB5C043E
:1006F000C2BFD4EB0C0541EA045170BD41F4801136
:100700004FF0000E013C00F3AB8014F1360FDEBF5A
:10071000002001F0004170BDC4F10004203C35DA36
:100720000C341BDC04F11404C4F1200500FA05F3B9
:1007300020FA04F001FA05F240EA020001F000425A
:1007400021F0004110EBD37021FA04F642EB0601D0
:100750005EEA430E08BF20EAD37070BDC4F10C04FA
:10076000C4F1200500FA04F320FA05F001FA04F2BE
:1007700040EA020001F0004110EBD37041F10001AA
:100780005EEA430E08BF20EAD37070BDC4F12005B5
:1007900000FA05F24EEA020E20FA04F301FA05F21D
:1007A00043EA020321FA04F001F0004121FA04F2C5
:1007B00020EA020000EBD3705EEA430E08BF20EA95
:1007C000D37070BD94F0000F0FD101F000464000CF
:1007D00041EB010111F4801F08BF013CF7D041EA51
:1007E000060195F0000F18BF704703F00046520055
:1007F00043EB030313F4801F08BF013DF7D043EA26
:100800000603704794EA0C0F0CEA135518BF95EADB
:100810000C0F0CD050EA410618BF52EA4306D1D162
:1008200081EA030101F000414FF0000070BD50EA81
:10083000410606BF1046194652EA430619D094EA0B
:100840000C0F02D150EA013613D195EA0C0F05D1F5
:1008500052EA03361CBF104619460AD181EA030149
:1008600001F0004141F0FE4141F470014FF0000001
:1008700070BD41F0FE4141F4780170BD70B54FF09C
:10088000FF0C4CF4E06C1CEA11541DBF1CEA13551C
:1008900094EA0C0F95EA0C0F00F0A7F8A4EB0504FE
:1008A00081EA030E52EA03354FEA013100F08880F5
:1008B0004FEA03334FF0805545EA131343EA1263BE
:1008C0004FEA022245EA111545EA10654FEA002673
:1008D0000EF000419D4208BF964244F1FD0404F52C
:1008E000407402D25B084FEA3202B61A65EB030588
:1008F0005B084FEA32024FF480104FF4002CB6EB45
:10090000020E75EB030E22BFB61A754640EA0C00C4
:100910005B084FEA3202B6EB020E75EB030E22BF04
:10092000B61A754640EA5C005B084FEA3202B6EB45
:10093000020E75EB030E22BFB61A754640EA9C0004
:100940005B084FEA3202B6EB020E75EB030E22BFD4
:10095000B61A754640EADC0055EA060E18D04FEA92
:10096000051545EA16754FEA06164FEAC30343EA32
:1009700052734FEAC2025FEA1C1CC0D111F4801FFF
:100980000BD141EA00014FF000004FF0004CB6E7F8
:1009900011F4801F04BF01430020B4F1FD0C88BF97
:1009A000BCF5E06F3FF6AFAEB5EB030C04BFB6EBA2
:1009B000020C5FEA500C50F1000041EB045170BD95
:1009C0000EF0004E4EEA113114EB5C04C2BFD4EBC2
:1009D0000C0541EA045170BD41F480114FF0000E46
:1009E000013C90E645EA060E8DE60CEA135594EAC2
:1009F0000C0F08BF95EA0C0F3FF43BAF94EA0C0FC5
:100A00000AD150EA01347FF434AF95EA0C0F7FF439
:100A100025AF104619462CE795EA0C0F06D152EA8D
:100A200003353FF4FDAE1046194622E750EA410671
:100A300018BF52EA43067FF4C5AE50EA41047FF482
:100A40000DAF52EA43057FF4EBAE12E74FF0FF3CE7
:100A500006E000BF4FF0010C02E000BF4FF0010CB8
:100A60004DF804CD4FEA410C7FEA6C5C4FEA430C31
:100A700018BF7FEA6C5C1BD001B050EA410C0CBF80
:100A800052EA430C91EA030F02BF90EA020F0020E2
:100A9000704710F1000F91EA030F58BF994208BF49
:100AA00090422CBFD8176FEAE37040F00100704706
:100AB0004FEA410C7FEA6C5C02D150EA013C07D15D
:100AC0004FEA430C7FEA6C5CD6D152EA033CD3D0A8
:100AD0005DF8040B704700BF8446104662468C46A2
:100AE0001946634600E000BF01B5FFF7B7FF0028D5
:100AF00048BF10F1000F01BD4DF808EDFFF7F4FFFE
:100B00000CBF012000205DF808FB00BF4DF808ED88
:100B1000FFF7EAFF34BF012000205DF808FB00BFAB
:100B20004DF808EDFFF7E0FF94BF012000205DF8CD
:100B300008FB00BF4DF808EDFFF7CEFF94BF012082
:100B400000205DF808FB00BF4DF808EDFFF7C4FF7B
:100B500034BF012000205DF808FB00BF4FEA410CC4
:100B60007FEA6C5C02D150EA013C0AD14FEA430CA7
:100B70007FEA6C5C02D152EA033C02D14FF00000E4
:100B800070474FF0010070474FEA410212F5001222
:100B900015D211D56FF47873B3EB625212D94FEAC4
:100BA000C12343F0004343EA505311F0004F23FAAE
:100BB00002F018BF404270474FF00000704750EA03
:100BC000013005D111F0004008BF6FF000407047C0
:100BD0004FF00000704700BF53B94AB9002908BF61
:100BE00000281CBF4FF0FF314FF0FF3000F074B908
:100BF000ADF1080C6DE904CE00F006F8DDF804E074
:100C0000DDE9022304B070472DE9F047089D044652
:100C10008E46002B4DD18A42944669D9B2FA82F2AF
:100C200052B101FA02F3C2F1200120FA01F10CFAEB
:100C300002FC41EA030E94404FEA1C48210CBEFB23
:100C4000F8F61FFA8CF708FB16E341EA034306FBAC
:100C500007F199420AD91CEB030306F1FF3080F03B
:100C60001F81994240F21C81023E63445B1AA4B288
:100C7000B3FBF8F008FB103344EA034400FB07F72A
:100C8000A7420AD91CEB040400F1FF3380F00A816B
:100C9000A74240F207816444023840EA0640E41B60
:100CA00000261DB1D4400023C5E900433146BDE80C
:100CB000F0878B4209D9002D00F0EF800026C5E9AE
:100CC000000130463146BDE8F087B3FA83F6002EC6
:100CD0004AD18B4202D3824200F2F980841A61EB3E
:100CE000030301209E46002DE0D0C5E9004EDDE75C
:100CF00002B9FFDEB2FA82F2002A40F09280A1EB44
:100D00000C014FEA1C471FFA8CFE0126200CB1FB98
:100D1000F7F307FB131140EA01410EFB03F0884291
:100D200008D91CEB010103F1FF3802D2884200F21E
:100D3000CB804346091AA4B2B1FBF7F007FB1011B0
:100D400044EA01440EFB00FEA64508D91CEB04044E
:100D500000F1FF3102D2A64500F2BB800846A4EBA9
:100D60000E0440EA03409CE7C6F12007B34022FA94
:100D700007FC4CEA030C20FA07F401FA06F31C43C3
:100D8000F9404FEA1C4900FA06F3B1FBF9F8200CD0
:100D90001FFA8CFE09FB181140EA014108FB0EF016
:100DA000884202FA06F20BD91CEB010108F1FF3A66
:100DB00080F08880884240F28580A8F10208614472
:100DC000091AA4B2B1FBF9F009FB101144EA014180
:100DD00000FB0EFE8E4508D91CEB010100F1FF342B
:100DE0006CD28E456AD90238614440EA0840A0FBC3
:100DF0000294A1EB0E01A142C846A64656D353D099
:100E00005DB1B3EB080261EB0E0101FA07F722FABC
:100E100006F3F1401F43C5E9007100263146BDE8E5
:100E2000F087C2F12003D8400CFA02FC21FA03F348
:100E3000914001434FEA1C471FFA8CFEB3FBF7F0C9
:100E400007FB10360B0C43EA064300FB0EF69E42EE
:100E500004FA02F408D91CEB030300F1FF382FD287
:100E60009E422DD9023863449B1B89B2B3FBF7F62F
:100E700007FB163341EA034106FB0EF38B4208D908
:100E80001CEB010106F1FF3816D28B4214D9023E49
:100E90006144C91A46EA004638E72E46284605E767
:100EA0000646E3E61846F8E64B45A9D2B9EB020838
:100EB00064EB0C0E0138A3E74646EAE7204694E7C8
:100EC0004046D1E7D0467BE7023B614432E73046FB
:100ED00009E76444023842E7704700BF044B4B60A7
:100EE00000224FF0011008608B60CA60002070473C
:100EF0000000484190F83130012B12D010B590F825
:100F00003230044623B1012384F83130002010BD73
:100F10000121203000F0B0FA0028F4D04FF0FF306B
:100F200010BD0020704700BF90F83230012B12D066
:100F300010B590F83130044623B1012384F83230E3
:100F4000002010BD0121203000F096FA0028F4D0D6
:100F50004FF0FF3010BD0020704700BF38B590F84B
:100F60003010044621B1012384F83030002038BD10
:100F700000F12005284600F07FFA50B901212846EB
:100F800000F034FA28B90121284600F0EFF90028D2
:100F9000E9D04FF0FF3038BD07EE901AB7EE007A77
:100FA000F4EEC77AF1EE10FA08B510D9B1EE0C7A6A
:100FB000F4EEC77AF1EE10FA94BF0221032120303B
:100FC00000F0D4F9003818BF0120404208BD0121CB
:100FD000F5E700BF08B5203000F046FA003818BF2A
:100FE0000120404208BD00BF30B500F1200487B0A9
:100FF0000D46204602A900F0C9FA002848D103A9ED
:10100000204600F053FA002842D104A9204600F0FF
:10101000D5FA00283CD105A9204600F05BFA03462A
:10102000B0BB01A92046ADF8043000F0F9F978BB57
:10103000DDED056ADDED025A9DED035A9DED047A62
:10104000BDF9043065EEE67A06EE103AE5EE077A71
:10105000002376EEC56AB8EEC66A37EE657AE6EE2C
:10106000267AC7EE876AF5EEC06AF1EE10FA0CD464
:10107000DFED097AF4EEE76AF1EE10FAD4BFC5EDC0
:10108000006AC5ED007A07B030BD2B6007B030BDF7
:101090004FF0FF30F7E700BF0000C84230B500F165
:1010A000200487B00D46204602A900F09FFAA0BB9D
:1010B00003A9204600F022FA78BB04A9204600F0DC
:1010C000ADFA50BB05A9204600F03CFA034620BB10
:1010D00001A92046ADF8043000F0B4F9E8B9DDED1F
:1010E000056ADDED025A9DED035A9DED047ABDF9C6
:1010F000043065EEE67A06EE103AE5EE077A76EE13
:10110000C56AB8EEC66A37EE657AE6EE267AC7EEAD
:10111000876AC5ED006A07B030BD4FF0FF30FAE7CF
:1011200010B484683CB94469007BA44641F0800156
:101130005DF8044B60474469007BA44641F04001E0
:101140005DF8044B604700BF10B484683CB9046983
:10115000007BA44641F080015DF8044B60470469C0
:10116000007BA44641F040015DF8044B604700BF9E
:1011700010B590F83030012B044603D0002084F8DD
:10118000300010BD90F8313090F832101BB169B1C9
:10119000002384F831300029F0D0002104F1200030
:1011A00000F06AF948B984F83200E7E7203000F02F
:1011B00063F910B994F83210EAE74FF0FF3010BD30
:1011C00010B582B00C4620300DF1070100F0E8F8B0
:1011D000C0B99DF80730032B14D8DFE803F0060AE6
:1011E0000F020A4B236002B010BD0023236002B03F
:1011F00010BD4FF07E53236002B010BD044B23603E
:1012000002B010BD4FF0FF30EDE700BF00004841D5
:101210000000E04010B5044690F8310030B194F879
:10122000321021B1002384F83130184610BD04F18A
:10123000200000F021F90028F4D04FF0FF3010BD5D
:1012400010B5044690F8320030B194F8311021B155
:10125000002384F83230184610BD04F1200000F05D
:101260000BF90028F4D04FF0FF3010BD10B582B05C
:101270000C4620300DF1070100F092F8C0B99DF83E
:101280000730032B14D8DFE803F0060A0F020A4BDD
:10129000236002B010BD0023236002B010BD4FF0E8
:1012A0007E53236002B010BD044B236002B010BD1A
:1012B0004FF0FF30EDE700BF000048410000E04084
:1012C00007EE901AB7EE007AF4EEC77AF1EE10FA54
:1012D00008B510D9B1EE0C7AF4EEC77AF1EE10FA37
:1012E00094BF02210321203000F040F8003818BFDD
:1012F0000120404208BD0121F5E700BFF0B110B464
:10130000D1E900348A688260C0E900340A7B027344
:10131000D1E90442C0E90442D1E9064209494162E7
:1013200009498461C0E90A20016213B15DF8044BE8
:1013300018474FF0FF305DF8044B70474FF0FF3017
:10134000704700BF211100084911000810B444681B
:10135000C068A4465DF8044B604700BF10B4046841
:10136000C068A4465DF8044B604700BF30B583B049
:101370000D46012301AA20210446FFF7E7FF08B12B
:1013800003B030BD9DF8041065F301018DF8041021
:10139000012301AA20462021FFF7E0FF03B030BD62
:1013A00010B582B001230C4601AA2021FFF7CEFF21
:1013B0009DF8043003F00303032B13D8DFE803F098
:1013C0000E0A06020323237002B010BD022323700D
:1013D00002B010BD0123237002B010BD00232370A2
:1013E00002B010BD04232370EEE700BF30B583B018
:1013F0000D46012301AA20210446FFF7A7FF08B1EB
:1014000003B030BD9DF8041065F382018DF804101F
:10141000012301AA20462021FFF7A0FF03B030BD21
:1014200010B582B00C4601AA02232821FFF78EFFD7
:101430009DF805209DF8043003EB0223238002B0C1
:1014400010BD00BF10B582B00C4601AA02232A21AC
:10145000FFF77CFF9DF805209DF8043003EB022385
:10146000238002B010BD00BF08B50A4601230F213A
:10147000FFF76CFF08BD00BF30B583B00D460123F8
:1014800001AA20210446FFF761FF08B103B030BD77
:101490009DF8041065F3C7118DF80410012301AA0B
:1014A00020462021FFF75AFF03B030BD10B582B0AF
:1014B0000C4601230DF107023021FFF747FF9DF88D
:1014C000073007EE903AFAEEEF7AC4ED007A02B0F8
:1014D00010BD00BF10B582B00C4601230DF107020C
:1014E0003121FFF733FF9DF8073007EE903AFAEE0F
:1014F000EF7AC4ED007A02B010BD00BF30B583B002
:101500000D4601230DF1070232210446FFF71EFFAD
:1015100008B103B030BD01AA012335212046FFF7F1
:1015200015FF9DF804209DF8073002F0030203EB3D
:10153000022307EE903AFAEEEE7AC5ED007A03B098
:1015400030BD00BF30B583B00D4601230DF1070259
:1015500033210446FFF7FAFE08B103B030BD01AAFB
:10156000012335212046FFF7F1FE9DF804209DF868
:101570000730C2F3810203EB022307EE903AFAEE42
:10158000EE7AC5ED007A03B030BD00BF10B582B071
:101590000C4601AA02233621FFF7D8FE9DF805204C
:1015A0009DF8043003EB02231BB207EE903AF8EEED
:1015B000E77AC4ED007A02B010BD00BF10B582B06A
:1015C0000C4601AA02233A21FFF7C0FE9DF8052030
:1015D0009DF8043003EB02231BB207EE903AF8EEBD
:1015E000E77AC4ED007A02B010BD00BF10B582B03A
:1015F0000C4601AA02233C21FFF7A8FE9DF8052016
:101600009DF8043003EB02231BB207EE903AF8EE8C
:10161000E77AC4ED007A02B010BD00BF10B582B009
:101620000C4601AA02233E21FFF790FE9DF80520FB
:101630009DF8043003EB02231BB207EE903AF8EE5C
:10164000E77AC4ED007A02B010BD00BF10B44FF4C9
:10165000803400230020064A0C603224CC60C1E9AB
:1016600001005DF8044B0B614B618A61704700BF5C
:101670000000C8424FF07F530B600020704700BF4E
:1016800032230B600020704700207047F0B587B010
:10169000164600228DF80A203D2200F120041D4646
:1016A0008DF80D308DF80B200123442240278DF852
:1016B00007108DF80C2019460DF1090220468DF80F
:1016C000097000F0A3FB002850D101230DF10B029B
:1016D0001521204600F09AFB002847D101230DF187
:1016E00007021621204600F091FB00283ED101237D
:1016F0000DF10D021721204600F088FBB0BB01233D
:1017000003AA1421204600F081FB78BB01230DF1D0
:101710000A021946204600F079FB38BB01230DF17F
:101720000E021021204600F069FBF8B99DF80E303A
:1017300073B30DF10E0201231021204600F066FB69
:10174000A0B9062304AA2921204600F057FB20B1A6
:101750000CE09DF80F10CA0710D401230DF10F0201
:101760001E21204600F04AFB0028F2D04FF0FF3047
:1017700007B0F0BD9DF80F10CB070CD401230DF17D
:101780000F023921204600F039FB0028F2D0EDE7A6
:101790008DF80E70CDE701230DF1090219462046A0
:1017A00000F034FB0028E1D12B46324602212046CE
:1017B00000F024FB0028D9D101230DF10A021946BB
:1017C000204600F023FB003818BF0120404207B03C
:1017D000F0BD00BF10B582B00C4620300DF10701FE
:1017E00000F050FBB8B99DF80730032B13D8DFE8A1
:1017F00003F0060A0E02094B236002B010BD084B2D
:10180000236002B010BD074B236002B010BD064B31
:10181000236002B010BD4FF0FF30EEE70000C84279
:10182000000020410000A0410000484210B582B0F5
:101830000C462030694600F05BFB30B9009ABDF8D9
:1018400004302260A38002B010BD4FF0FF30FAE7F1
:1018500010B58268032A84B00C462ED002A920302D
:1018600000F046FB00284AD1BDF9083006EE903A58
:10187000BDF90A3007EE103ABDF90C3007EE903A88
:10188000F8EEE66AB8EEC77AF8EEE77AB7EE086ADD
:1018900066EE866A27EE067A67EE867AFDEEE66ADF
:1018A000BDEEC77AFDEEE77AC4ED006A84ED017AF9
:1018B000C4ED027A002004B010BD06236A466821F8
:1018C000FFF7E4FED8B99DF801009DF803309DF8BC
:1018D00000109DF8022001EB002102EB03229DF88D
:1018E00005009DF8043003EB002309B212B21BB2CD
:1018F00006EE901A07EE102A07EE903AC0E74FF076
:10190000FF30D8E710B484684CB1032C4469007BE5
:10191000A44618BF41F040015DF8044B604744699C
:10192000007BA44641F080015DF8044B604700BF96
:1019300010B484684CB1032C0469007BA44618BF22
:1019400041F040015DF8044B60470469007BA44608
:1019500041F080015DF8044B604700BF10B584681A
:10196000032C07D0203000F0E3FA003818BF012024
:10197000404210BD0A4601234F21FFF787FE003881
:1019800018BF0120404210BD70B586B03C2300F165
:1019900020048DF80710002044218DF80B3001231E
:1019A000402516468DF80A008DF80D108DF80C00B4
:1019B0000DF10902194620468DF8095000F026FA6B
:1019C000002858D101230DF10B021521204600F00B
:1019D0001DFA00284FD101230DF1070216212046E0
:1019E00000F014FA002846D1012303AA172120464B
:1019F00000F00CFA00283ED1012332460E21204689
:101A000000F004FAB8BB01230DF10D0214212046A9
:101A100000F0FCF978BB01230DF10A0219462046BB
:101A200000F0F4F938BB01230DF10E02102120461D
:101A300000F0E4F9F8B99DF80E3073B301230DF10D
:101A40000E021021204600F0E1F9A0B9062304AAF5
:101A50002921204600F0D2F920B10CE09DF80F308A
:101A6000DB0710D401230DF10F021E21204600F0E8
:101A7000C5F90028F2D04FF0FF3006B070BD9DF9D7
:101A80000F30002BF9DB01230DF10F023921204625
:101A900000F0B4F90028F2D0EDE78DF80E50CDE754
:101AA00030B507EE901AB2EE047AF4EEC77AF1EE92
:101AB00010FA83B0044623D9B3EE047AF4EEC77A61
:101AC000F1EE10FA2BD8A3680125032B29461CD16F
:101AD000012301AA60212046FFF7D8FD60BB9DF8D5
:101AE000043001AA65F38303602120468DF8043099
:101AF000FFF74AFF003818BF0120404203B030BD55
:101B000000252946A368032BE2D004F1200000F051
:101B10009FF9003818BF0120404203B030BD9FED4F
:101B2000087AF4EEC77AF1EE10FA02D802252946B7
:101B3000E8E703252946E5E74FF0FF30EDE700BF72
:101B40000000484210B590F8313082B0044653B1DD
:101B50008368032B0CD00221203000F05FF9D8B944
:101B6000002384F83130002084F8300002B010BD2A
:101B7000012301AA6021FFF789FD68B99DF80430AF
:101B8000022262F30103602101AA20468DF804308D
:101B9000FFF7FAFE0028E3D04FF0FF30E6E700BF82
:101BA00090F83130012B26D010B58368032B82B01A
:101BB00004460AD00021203000F030F9C0B90123DA
:101BC00084F83130002002B010BD012301AA602149
:101BD000FFF75CFD60B99DF8043001AA60F30103D2
:101BE000602120468DF80430FFF7CEFE0028E6D0B5
:101BF0004FF0FF30E7E70020704700BF30B5836843
:101C0000032B83B004461CD000F120050121284697
:101C100000F054F900283ED10221284600F0FEF8D9
:101C2000C8BB0321284600F013F9014698BB28469B
:101C300000F088F978BB012384F83030002003B02D
:101C400030BD012301AA6221FFF720FD18BB01234B
:101C50006A4660212046FFF719FDE0B99DF804109F
:101C60009DF8003021F0120141F0100123F00F0324
:101C700043F00E038DF8041001AA622120468DF86E
:101C80000030FFF781FE30B96A4660212046FFF739
:101C90007BFE0028CFD04FF0FF30D0E790F83130F6
:101CA0003BB310B58368032B82B004460AD00221EF
:101CB000203000F0B3F8C8B9002384F8313018465A
:101CC00002B010BD012301AA6021FFF7DFFC68B953
:101CD0009DF80430022262F30103602101AA20462C
:101CE0008DF80430FFF750FE0028E5D04FF0FF30AC
:101CF000E6E71846704700BF002841D010B50446FB
:101D0000D1E900308A68A260C4E900300A7B2273FE
:101D1000D1E90402C4E90402D1E906021A49616268
:101D20001A49A061C4E90A2482B021622BB3984702
:101D300018BBA3687BB194F8302062B9012B0CD09A
:101D4000032B08D0012104F1200000F015F9003820
:101D500018BF0120404202B010BD4FF0340C0DF10D
:101D60000702622104F120008DF807C000F04EF850
:101D7000002818BF4FF0FF30EDE74FF0FF30EAE7E3
:101D80004FF0FF30704700BF0519000831190008F7
:101D900008B58368032B08D00123203000F02EF80B
:101DA000003818BF0120404208BD0123FFF76EFC38
:101DB000003818BF0120404208BD00BF00B583684D
:101DC00083B0032B8DF807200CD001230DF10702FF
:101DD000203000F01BF8003818BF0120404203B04B
:101DE0005DF804FB0DF10702FFF7CEFD003818BFC8
:101DF0000120404203B05DF804FB00BF10B444680A
:101E0000C068A4465DF8044B604700BF10B4046886
:101E1000C068A4465DF8044B604700BF70B5044637
:101E200082B00D46C0686668012301AA6021B047F0
:101E300058B99DF804302668E06865F301038DF811
:101E4000043001AA01236021B04702B070BD00BF79
:101E500070B5044682B00D46C0686668012301AAC9
:101E60006021B04758B99DF804302668E06865F3F2
:101E700083038DF8043001AA01236021B04702B02A
:101E800070BD00BF30B583B04568C068012301AAAA
:101E90000C466021A8479DF80430C3F38102022A52
:101EA000134607D0032A05D0012A03D0002323704C
:101EB00003B030BD237003B030BD00BF70B5044621
:101EC00082B00D46C0686668012301AA6221B0474E
:101ED00058B99DF804302668E06865F304138DF85E
:101EE000043001AA01236221B04702B070BD00BFD7
:101EF00030B583B00C464568C0686A460623682141
:101F0000A8479DF801209DF800309DF803C09DF87A
:101F1000051003EB022323809DF802209DF8043076
:101F200002EB0C2203EB01236280A38003B030BDDF
:101F300010B44468C0680A46A44601235DF8044B07
:101F40004F21604770B5044682B00D46C068666890
:101F5000012301AA6221B04758B99DF804302668D0
:101F6000E06865F341038DF8043001AA0123622182
:101F7000B04702B070BD00BF70B5044682B00D46D8
:101F8000C0686668012301AA6221B04758B99DF86C
:101F900004302668E06865F345138DF8043001AA23
:101FA00001236221B04702B070BD00BF044B8B60BB
:101FB000002240F2011008604A60CB6000207047A8
:101FC0000000484310B44469007BA4465DF8044B0C
:101FD000604700BF10B40469007BA4465DF8044B61
:101FE000604700BF38B590F83030044623B1012374
:101FF00084F83030002038BD00F12005112128463A
:1020000000F00AFCB8B91021284600F00FFB014689
:1020100088B9284600F0E6FB68B90121284600F09F
:10202000EBFA40B90121284600F0C2FB18B903239E
:1020300084F83330DBE74FF0FF3038BD08B520308F
:1020400000F0AEFB003818BF0120404208BD00BFC1
:1020500038B590F8313007EE901AB7EE007A012BC0
:102060000446F4EEC77A27D0F1EE10FA1DD9B2EE8D
:10207000047AF4EEC77AF1EE10FA1BD9B3EE097ABE
:10208000F4EEC77AF1EE10FA4FD99FED347AF4EE00
:10209000C77AF1EE10FA4CD99FED317AF4EEC77A97
:1020A000F1EE10FA49D8052300E0012384F833301B
:1020B000002038BD0223F9E7F1EE10FA24D9B2EE80
:1020C000047AF4EEC77AF1EE10FA30D9B3EE097A59
:1020D000F4EEC77AF1EE10FA2DD99FED207AF4EEE6
:1020E000C77AF1EE10FA35D99FED1D7AF4EEC77A72
:1020F000F1EE10FA30D99FED1B7AF4EEC77AF1EECB
:1021000010FA94BF0623072304F120051946284638
:1021100000F08CFAD8B904F13301284600F0BAFA7D
:10212000003818BF0120404238BD0323BEE7022318
:10213000EAE70423BAE70323E6E79FED0A7AF4EE21
:10214000C77AF1EE10FA94BF06230723AEE74FF0EB
:10215000FF3038BD0423D7E70523D5E70000484208
:10216000000096420000C84230B583B00D46002200
:1021700001A92030019200F0EBFA38B90446019829
:1021800000F024FA2860204603B030BD4FF0FF3441
:10219000F9E700BF30B583B00D46002201A9203019
:1021A000ADF8042000F0EAFA40B90446BDF9040095
:1021B00000F014FA2860204603B030BD4FF0FF3421
:1021C000F9E700BF90F83130012B0BD010B5044671
:1021D00090F83310203000F029FA28B9012384F850
:1021E000313010BD002070474FF0FF3010BD00BFF0
:1021F00090F83230012B0BD010B5044690F8331014
:10220000203000F013FA28B9012384F8323010BDD1
:10221000002070474FF0FF3010BD00BF70B590F840
:102220003030012B044603D0002084F8300070BD0C
:1022300090F8313090F832501BB1A5B1002384F8EA
:102240003130002DF0D004F1200504F1330128468F
:1022500000F020FA0146B0B9284600F0E7F990B93D
:1022600084F83200E0E700F1200600F13301304647
:1022700000F010FA38B92946304600F0D7F910B905
:1022800094F83250DAE74FF0FF3070BD10B582B0ED
:102290000C4620300DF1070100F0FCF900282AD18E
:1022A0009DF80730072B26D8DFE803F0080C11153E
:1022B000191D2104114B236002B010BD00232360BF
:1022C00002B010BD4FF07E53236002B010BD0C4B26
:1022D000236002B010BD0B4B236002B010BD0A4B4F
:1022E000236002B010BD094B236002B010BD084B43
:1022F000236002B010BD4FF0FF30DDE7000048431F
:10230000000020410000C841000048420000964201
:102310000000C84210B582B00C4620300DF1070114
:1023200000F0B8F900282AD19DF80730072B26D8ED
:10233000DFE803F0080C1115191D2104114B23606F
:1023400002B010BD0023236002B010BD4FF07E53D9
:10235000236002B010BD0C4B236002B010BD0B4BCC
:10236000236002B010BD0A4B236002B010BD094BC0
:10237000236002B010BD084B236002B010BD4FF0C7
:10238000FF30DDE700004843000020410000C84165
:1023900000004842000096420000C84238B504469A
:1023A00090F8310030B194F8323023B1002384F832
:1023B0003130184638BD04F1200504F133012846B8
:1023C00000F068F9014620B9284600F02FF90028EE
:1023D000ECD04FF0FF3038BD38B5044690F83200ED
:1023E00030B194F8313023B1002384F832301846EC
:1023F00038BD04F1200504F13301284600F04AF904
:10240000014620B9284600F011F90028ECD04FF021
:10241000FF3038BD38B590F8323007EE901AB7EE7D
:10242000007A012B0446F4EEC77A27D0F1EE10FAB9
:102430001DD9B2EE047AF4EEC77AF1EE10FA1BD988
:10244000B3EE097AF4EEC77AF1EE10FA4FD99FEDA8
:10245000347AF4EEC77AF1EE10FA4CD99FED317A66
:10246000F4EEC77AF1EE10FA49D8052300E0012313
:1024700084F83330002038BD0223F9E7F1EE10FA7A
:1024800024D9B2EE047AF4EEC77AF1EE10FA30D91C
:10249000B3EE097AF4EEC77AF1EE10FA2DD99FED7A
:1024A000207AF4EEC77AF1EE10FA35D99FED1D7A55
:1024B000F4EEC77AF1EE10FA30D99FED1B7AF4EE04
:1024C000C77AF1EE10FA94BF0623072304F1200522
:1024D0001946284600F0AAF8D8B904F13301284675
:1024E00000F0D8F8003818BF0120404238BD03235F
:1024F000BEE70223EAE70423BAE70323E6E79FEDFA
:102500000A7AF4EEC77AF1EE10FA94BF0623072395
:10251000AEE74FF0FF3038BD0423D7E70523D5E7FA
:1025200000004842000096420000C842002836D011
:1025300010B50446D1E900308A68A260C4E90030D1
:102540000A7B2273D1E90402C4E90402D1E906023C
:10255000144961621449A061C4E90A2482B021626D
:10256000D3B19847C0B9A368022B01D002B010BD07
:1025700094F83030002BF9D101230DF1070210211E
:1025800004F120008DF8073000F018F8002818BF7B
:102590004FF0FF3002B010BD4FF0FF30E6E74FF0D4
:1025A000FF307047C51F0008D51F000810B44468ED
:1025B000C068A4465DF8044B604700BF10B40468CF
:1025C000C068A4465DF8044B604700BF07EE900A60
:1025D000FBEEC67A17EE900A704700BF07EE900A2E
:1025E0009FED047AF8EEE77AC7EE877A17EE900A45
:1025F000704700BF0000C84230B583B00D460123CC
:1026000001AA10210446FFF7D1FF08B103B030BD85
:102610009DF8041065F341018DF80410012301AA0F
:1026200020461021FFF7CAFF03B030BD30B583B09C
:102630000C4601236A4610210546FFF7B7FF08B193
:1026400003B030BD012301AA11212846FFF7AEFFD8
:102650000028F5D19DF8003064F306138DF80030A2
:102660006A46012310212846FFF7A8FF0028E7D17A
:102670009DF80410C4F3C10421F003010C430123AD
:1026800001AA112128468DF80440FFF797FF03B0F7
:1026900030BD00BF30B583B00D4601236A4610211E
:1026A0000446FFF783FF08B103B030BD012301AA40
:1026B00011212046FFF77AFF0028F5D1012301AA56
:1026C00011212046FFF772FF9DF804309DF800208D
:1026D000DB0003F01803C2F302121344152B0CD8CD
:1026E000DFE803F00B1114171A1D2023260B0B0B28
:1026F0000B0B0B0B0B292C2F320E00232B70D3E767
:1027000015232B70D0E701232B70CDE702232B700C
:10271000CAE703232B70C7E704232B70C4E7052304
:102720002B70C1E706232B70BEE707232B70BBE796
:1027300008232B70B8E711232B70B5E712232B70F9
:10274000B2E713232B70AFE714232B70ACE700BF65
:1027500010B582B00C4601AA03232821FFF726FFFB
:102760009DF806109DF805209DF8043002EB01222B
:1027700003EB02231B02236002B010BD10B582B030
:102780000C4601AA02232B21FFF710FF9DF805201C
:102790009DF8043003EB0223238002B010BD00BF7C
:1027A00008B50A4601230F21FFF700FF08BD00BF4F
:1027B00030B583B00D46012301AA11210446FFF76D
:1027C000F5FE08B103B030BD9DF8041065F30411A7
:1027D0008DF80410012301AA20461121FFF7EEFE17
:1027E00003B030BD30B583B00D46012301AA1021DE
:1027F0000446FFF7DBFE08B103B030BD9DF80410BE
:1028000065F383018DF80410012301AA20461021ED
:10281000FFF7D4FE03B030BD30B583B00C460123C2
:1028200001AA0E210546FFF7C1FE08B103B030BD75
:102830009DF80420630003F00203210943EAC11458
:1028400002F07D010C43012301AA0E2128468DF8D8
:102850000440FFF7B3FE03B030BD00BF10B440F238
:10286000011C4FF4FA64074B0B610020C1E900C45E
:1028700010240022C1E902404B615DF8044B8A61DB
:10288000704700BF0020D04510B44469007BA446C7
:102890005DF8044B604700BF10B40469007BA44698
:1028A0005DF8044B604700BF022908B506DD042926
:1028B0000DDD0929B4BF0321012100E000212030F2
:1028C00000F0D0FD003818BF0120404208BD0221B1
:1028D000F5E700BF70B500F12004054680212046D1
:1028E00000F046FF58BB0121204600F027FF30BB17
:1028F0000121204600F0A4FE014600BB204600F066
:1029000065FF0146D8B9042685F83360204601F0FA
:1029100003FC014698B9204600F0A4FD014670B9B9
:1029200085F83460204601F0E3FC40B906212046DA
:1029300000F00AFE18B9012385F8303070BD4FF061
:10294000FF3070BD7D2908B50ADDFA2911DDB1F52A
:10295000FA7F10DDB1F57A7FD4BF0421062100E0B3
:102960000121203000F0F0FD003818BF0120404266
:1029700008BD0021F5E70221F3E700BF08B52030CC
:1029800000F0D2FE003818BF0120404208BD00BF51
:1029900010B582B00C4620300DF1070100F098FD13
:1029A000002830D19DF807300B2B2CD8DFE803F03E
:1029B0000A0D101316191C1F22252806134B23601D
:1029C00002B010BD00232360FAE7114B2360F7E744
:1029D000104B2360F4E7104B2360F1E70F4B2360AB
:1029E000EEE70F4B2360EBE70E4B2360E8E70E4B5F
:1029F0002360E5E70D4B2360E2E70D4B2360DFE743
:102A00000C4B2360DCE74FF0FF30D9E7CDCCCC3F57
:102A1000000048410000D041000050420000D04278
:102A2000000050430080D043004050440060D04438
:102A3000005050450058D04510B582B00C462030AB
:102A40000DF1070100F028FDB8B99DF80730032B00
:102A500013D8DFE803F0060A0E02094B236002B028
:102A600010BD084B236002B010BD074B236002B0BD
:102A700010BD064B236002B010BD4FF0FF30EEE7F3
:102A800023DB793E23DB793D23DBF93E23DBF93D74
:102A900010B582B00C4620300DF1070100F0FCFCAF
:102AA000B8B99DF80730032B13D8DFE803F0060A06
:102AB0000E020823236002B010BD0223236002B07F
:102AC00010BD1023236002B010BD0423236002B0A8
:102AD00010BD4FF0FF30EEE710B582B00C4620304D
:102AE000694600F0E7FD30B9009ABDF80430226075
:102AF000A38002B010BD4FF0FF30FAE710B582B0EE
:102B00000C4620300DF1070100F062FD00282DD1A8
:102B10009DF807300A2B29D8DFE803F00A0D1013BF
:102B200016191C1F22250600124B236002B010BD8F
:102B300000232360FAE7104B2360F7E70F4B236075
:102B4000F4E70F4B2360F1E70E4B2360EEE70E4BEB
:102B50002360EBE70D4B2360E8E70D4B2360E5E7CF
:102B60000C4B2360E2E70C4B2360DFE74FF0FF30B4
:102B7000DCE700BF0058D045000048410000D041CC
:102B8000000050420000D042000050430080D0437B
:102B9000004050440060D0440050504510B582B011
:102BA0000C4620300DF1070100F0E8FC48B99DF813
:102BB0000730062B05D8DFE803F0080C10041404D6
:102BC00018004FF0FF3002B010BD0A4B236002B076
:102BD00010BD094B236002B010BD084B236002B04A
:102BE00010BD074B236002B010BD064B236002B03E
:102BF00010BD00BF00000C4100008C4000008C4163
:102C000000000C4200008C4210B582B00C4620300F
:102C10000DF1070100F0B2FC48B99DF80730062B12
:102C200005D8DFE803F0080C100415041A004FF073
:102C3000FF3002B010BDFA23236002B010BD7D2327
:102C4000236002B010BD4FF4FA73236002B010BDD0
:102C50004FF47A73236002B010BD4FF4FA6323601F
:102C600002B010BD10B582B00C462030694600F0AD
:102C700001FD30B9009ABDF804302260A38002B093
:102C800010BD4FF0FF30FAE790F83130012B0BD038
:102C900010B5044690F83310203001F03DFA28B901
:102CA000012384F8313010BD002070474FF0FF3011
:102CB00010BD00BF90F83230012B0BD010B5044688
:102CC00090F83410203001F013FB28B9012384F868
:102CD000323010BD002070474FF0FF3010BD00BFF4
:102CE00038B5044690F8310000B938BD04F120052C
:102CF00004F13301284600F0EBFB014630B92846C9
:102D000001F00AFA10B984F8310038BD4FF0FF30F5
:102D100038BD00BF38B5044690F8320000B938BD60
:102D200004F1200504F13401284600F051FC01466D
:102D300030B9284601F0DCFA10B984F8320038BD09
:102D40004FF0FF3038BD00BF38B590F83130044641
:102D500043B994F83230C3B90020A4F8330084F8A2
:102D6000300038BD00F1200500F13301284600F0A5
:102D7000AFFB0146C8B9284601F0CEF9A8B994F8CE
:102D8000323084F83100002BE6D004F1200504F144
:102D90003401284600F01CFC014630B9284601F0F9
:102DA000A7FA10B984F83200D6E74FF0FF3038BDEB
:102DB00030B500F1200585B00C46284602A900F088
:102DC00079FC00283ED10DF10701284600F064FB94
:102DD000C0BB9DF80730032B34D8DFE803F02A2D61
:102DE00030029FED1A6ABDF9083006EE903ABDF93F
:102DF0000A3007EE103ABDF90C3007EE903AF8EEC3
:102E0000E66AB8EEC77AF8EEE77A66EE866A27EEEB
:102E1000067A67EE867AFDEEE66ABDEEC77AFDEECB
:102E2000E77AC4ED006A84ED017AC4ED027A05B058
:102E300030BD9FED076AD6E79FED066AD3E79FEDA9
:102E4000066AD0E74FF0FF30F1E700BF23DB793EA1
:102E500023DB793D23DBF93E23DBF93D30B500F17F
:102E6000200585B00C46284602A900F003FC78B97D
:102E70000DF10701284600F081FB48B99DF80730A5
:102E8000062B05D8DFE803F0083033043604390098
:102E90004FF0FF3005B030BD9FED196ABDF9083025
:102EA00006EE903ABDF90A3007EE103ABDF90C3043
:102EB00007EE903AF8EEE66AB8EEC77AF8EEE77AEF
:102EC00066EE866A27EE067A67EE867AFDEEE66A99
:102ED000BDEEC77AFDEEE77AC4ED006A84ED017AB3
:102EE000C4ED027A05B030BD9FED066AD6E79FEDCE
:102EF000066AD3E79FED056AD0E79FED056ACDE747
:102F000000000C4100008C4000008C4100000C428D
:102F100000008C4270B52DED028B00F1200682B0CE
:102F200008EE101A0546012301AA1621304600F0CA
:102F300089FA002840F0B1809DF90430002B044646
:102F4000C0F29C8095F83210F2EE097A0129B4EEB5
:102F5000E78A4AD0F1EE10FA07D8012385F8343019
:102F6000204602B0BDEC028B70BDF3EE0A7AB4EEDF
:102F7000E78AF1EE10FA40F29380DFED577AB4EE73
:102F8000E78AF1EE10FA40F28F80DFED547AB4EE6A
:102F9000E78AF1EE10FA40F28B80DFED517AB4EE61
:102FA000E78AF1EE10FA40F28780DFED4E7AB4EE58
:102FB000E78AF1EE10FA40F28380DFED4B7AB4EE4F
:102FC000E78AF1EE10FA7FD9DFED487AB4EEE78AAE
:102FD000F1EE10FA7CD9DFED467AB4EEE78AF1EE35
:102FE00010FA94BF09230A23B8E7F1EE10FA39D991
:102FF000F3EE0A7AB4EEE78AF1EE10FA52D9DFED79
:10300000367AB4EEE78AF1EE10FA4FD9DFED337A73
:10301000B4EEE78AF1EE10FA4CD9DFED317AB4EE76
:10302000E78AF1EE10FA49D9DFED2E7AB4EEE78A9D
:10303000F1EE10FA46D9DFED2C7AB4EEE78AF1EE24
:1030400010FA43D9DFED297AB4EEE78AF1EE10FAEF
:1030500040D9DFED277AB4EEE78AF1EE10FA94BF9B
:1030600009210A21304601F043F9003818BF012038
:103070004442204602B0BDEC028B70BD9DF8043086
:1030800060F3C7138DF8043001AA012316213046DE
:1030900000F0E0F900283FF455AF4FF0FF345FE750
:1030A00002235BE70221DDE7032357E70321D9E78A
:1030B000042353E70421D5E705234FE70521D1E792
:1030C00006234BE70621CDE7072347E70721C9E79A
:1030D000082343E70821C5E7000050420000D04222
:1030E000000050430080D043004050440060D04472
:1030F0000050504570B52DED028B00F1200682B0D6
:1031000008EE101A054601236A461421304600F0E5
:1031100099F900285FD19DF90030002B11DA95F85C
:103120003130012B5AD09DF800106FF3C7118DF884
:10313000001001236A461421304600F08BF9002864
:1031400049D1012301AA1521304600F07BF904463C
:10315000002840D19DF80430DA0630D4F2EE097A26
:10316000B4EEE78AF1EE10FA0CD595F83130012B68
:1031700000F0BC80012385F83330204602B0BDEC5E
:10318000028B70BD95F831309FED677A012BB4EE5C
:10319000C78A0FD1F1EE10FA27D80B21304600F084
:1031A000BBFF003818BF01204442204602B0BDECEE
:1031B000028B70BDF1EE10FA57D80B23DBE760F3FA
:1031C00004138DF8043001AA01231521304600F0C4
:1031D00041F90028C2D04FF0FF34CEE70146304617
:1031E00000F09AFF00289ED0F5E7B4EEE78AF1EEF2
:1031F00010FA7BD9F3EE0A7AB4EEE78AF1EE10FA10
:1032000078D9DFED4A7AB4EEE78AF1EE10FA75D993
:10321000DFED477AB4EEE78AF1EE10FA72D9DFED0E
:10322000457AB4EEE78AF1EE10FA6FD9DFED427A13
:10323000B4EEE78AF1EE10FA6CD9DFED407AB4EE25
:10324000E78AF1EE10FA69D9DFED3D7AB4EEE78A4C
:10325000F1EE10FA66D9DFED3B7AB4EEE78AF1EED3
:1032600010FA94BF09210A2198E7B4EEE78AF1EE3B
:1032700010FA7FF67FAFF3EE0A7AB4EEE78AF1EE4A
:1032800010FA35D9DFED297AB4EEE78AF1EE10FABB
:1032900032D9DFED277AB4EEE78AF1EE10FA2FD9B2
:1032A000DFED247AB4EEE78AF1EE10FA2CD9DFEDE7
:1032B000227AB4EEE78AF1EE10FA29D9DFED1F7A0F
:1032C000B4EEE78AF1EE10FA26D9DFED1D7AB4EEFE
:1032D000E78AF1EE10FA23D9DFED1A7AB4EEE78A25
:1032E000F1EE10FA94BF09230A2344E7012155E7C0
:1032F000022340E7022151E703233CE703214DE786
:10330000042338E7042149E7052334E7052145E78D
:10331000062330E7062141E707232CE707213DE795
:10332000082328E7082139E7CDCCCC3F00005042E4
:103330000000D042000050430080D0430040504481
:103340000060D04400505045002838D010B50446E5
:10335000D1E900308A68A260C4E900300A7B227398
:10336000D1E90402C4E90402D1E906021549616207
:103370001549A061C4E90A2482B02162E3B19847EB
:10338000D0B9A368022B01D002B010BD94F8303040
:10339000002BF9D14FF00C0C01230DF10702122183
:1033A00004F120008DF807C000F054F8002818BF81
:1033B0004FF0FF3002B010BD4FF0FF30E4E74FF0A8
:1033C000FF307047892800089928000808B5203088
:1033D000012300F037F8003818BF0120404208BD33
:1033E00000B583B0944601230DF1070220308DF81B
:1033F00007C000F02FF8003818BF0120404203B08A
:103400005DF804FB012908D808B5203000F072F9F6
:10341000003818BF0120404208BD4FF0FF30704710
:1034200000B583B06B4683E80600203093E80600C1
:1034300000F0C6FB003818BF0120404203B05DF821
:1034400004FB00BF10B44468C068A4465DF8044B98
:10345000604700BF10B40468C068A4465DF8044B20
:10346000604700BF70B5044682B00D46C06866680C
:10347000012301AA1021B04758B99DF804302668ED
:10348000E06865F383038DF8043001AA012310215D
:10349000B04702B070BD00BF30B583B04568C068AA
:1034A000012301AA0C461021A8479DF80430C3F35C
:1034B0008102022A134607D0032A05D0012A03D02D
:1034C0000023237003B030BD237003B030BD00BFB4
:1034D00030B583B04468C068012301AA0D461021AD
:1034E000A0479DF804301B090B2B0BD8DFE803F035
:1034F0000A101316191C1F222528060D0A232B70EB
:1035000003B030BD00232B70FAE70B232B70F7E7D5
:1035100001232B70F4E702232B70F1E703232B70B8
:10352000EEE704232B70EBE705232B70E8E7062377
:103530002B70E5E707232B70E2E708232B70DFE70A
:1035400009232B70DCE700BF70B5044682B00D463E
:10355000C0686668012301AA1121B04758B99DF8D7
:1035600004302668E06865F343038DF8043001AA4F
:1035700001231121B04702B070BD00BF30B583B048
:103580004468C068012301AA0D461121A0479DF897
:103590000430C3F34203013B052B04D8DFE803F0FA
:1035A0000B0F0313030700232B7003B030BD06235A
:1035B0002B7003B030BD01232B7003B030BD02234C
:1035C0002B7003B030BD04232B7003B030BD00BF9F
:1035D00030B583B04468C068012301AA0D461121AB
:1035E000A0479DF804301B090A2B0BD8DFE803F035
:1035F0000A101316191C1F2225060D0009232B7013
:1036000003B030BD00232B70FAE70A232B70F7E7D5
:1036100001232B70F4E702232B70F1E703232B70B7
:10362000EEE704232B70EBE705232B70E8E7062376
:103630002B70E5E707232B70E2E708232B70DFE709
:1036400070B5044682B00D46C0686668012301AAC1
:103650001221B04758B99DF804302668E06865F338
:1036600086138DF8043001AA01231221B04702B05D
:1036700070BD00BF30B583B00C464568C0686A466F
:1036800006232221A8479DF801209DF800309DF8CF
:1036900003C09DF8051003EB022323809DF8022050
:1036A0009DF8043002EB0C2203EB01236280A3801F
:1036B00003B030BD30B583B00C464568C0686A467B
:1036C00006232821A8479DF801209DF800309DF889
:1036D00003C09DF8051003EB022323809DF8022010
:1036E0009DF8043002EB0C2203EB01236280A380DF
:1036F00003B030BD70B5044682B00D46C068666840
:10370000012301AA0B21B04758B99DF8043026685F
:10371000E06865F3C7138DF8043001AA01230B217B
:10372000B04702B070BD00BF10B44468C0680A461C
:10373000A44601235DF8044B0F21604770B5044691
:1037400082B00D46C0686668012301AA1221B04705
:1037500058B99DF804302668E06865F382038DF857
:10376000043001AA01231221B04702B070BD00BF8E
:1037700070B5044682B00D46C0686668012301AA90
:103780001821B04700BB9DF804302668E068EA09BC
:1037900062F341038DF8043001AA01231821B047D8
:1037A00090B96668E06801236A466221B04758B95B
:1037B0009DF800302668E06865F3C4038DF800309A
:1037C0006A4601236221B04702B070BD70B504465D
:1037D00082B00D46C0686668012301AA0A21B0477D
:1037E00058B99DF804302668E06865F302038DF847
:1037F000043001AA01230A21B04702B070BD00BF06
:1038000070B5044682B001230D46C068666801AAFF
:103810001946B047002833D19DF80420E068266897
:10382000022363F3871201238DF80420194601AAAD
:10383000B04728BBE068666801236A465F21B0474D
:10384000F0B99DF80030C3F3C102022A134619D023
:10385000032A17D0012A15D0287001236568E06873
:1038600001AA1946A84758B99DF80420256860F3B5
:10387000871201238DF80420E06801AA1946A847A1
:1038800002B070BD2B70E8E770B5044682B001232A
:103890000D46C068666801AA1946B047002833D1B2
:1038A0009DF80420E0682668022363F38712012351
:1038B0008DF80420194601AAB04728BBE068666865
:1038C00001236A466021B047F0B99DF80030C3F388
:1038D0000112022A134619D0032A17D0012A15D043
:1038E000287001236568E06801AA1946A84758B9FD
:1038F0009DF80420256860F3871201238DF80420C9
:10390000E06801AA1946A84702B070BD2B70E8E72D
:103910002DE9F04F05468DB01446002900F0C18016
:103920004E68C868012305AA6F21B0479DF814307E
:103930002278DB0963F300022270002D00F0AE80D4
:10394000002800F0B0809DF820209DF828109DF8F8
:1039500010A09DF818609DF81C509DF824E0C1F35C
:10396000800301F0010C4FEADA17C2F300094CEAB8
:10397000430CCAF3001343EA87034FEA4909C2F331
:103980004007C2F3800B49EA8709C1F3C0074CEA3C
:10399000870C49EACB0906F00107C1F3001B43EA93
:1039A000C7034CEACB0CC6F3400B43EA0B13C2F33C
:1039B000C00B49EA0B1905F00108C1F3401B0EF0DA
:1039C00001074CEA0B1C4FEAC808C6F3800B43EA18
:1039D0004B1348EA5618C5F3400BFF0047EA55174A
:1039E00048EA0B18CEF3400B47EA0B17C2F3001B53
:1039F000039349EA4B1394F80090019309F00103F3
:103A000094F80590029329F0070949EA5E1984F8B1
:103A10000590C1F38019039B94F802B0C9094CEAE0
:103A2000491C4CEA811CC6F3C00143EA8113C6F36A
:103A3000001643EAC616C5F3800348EA4318019905
:103A4000CEF3800347EA4317C2F3401341EA8313DE
:103A5000C2F3801243EAC212029B1A43C5F3C003A9
:103A600048EA8318CEF3C003CAF3C00A0BF0020B76
:103A7000C5F3001547EA8317CEF3001E4CEACA1AB5
:103A800046EA0B0B48EAC51547EACE1E84F801A0AA
:103A900084F802B02270E57084F804E00DB0BDE84F
:103AA000F08F0028FAD001236E68E8680BAA194647
:103AB000B04700287FF447AF9DF82C202E68E868B7
:103AC000022363F3871201238DF82C2019460BAAD9
:103AD000B04700287FF437AF6E68E868012309AA71
:103AE0001121B04700287FF42EAF6E68E8680123EB
:103AF00004AA0E21B04700287FF425AF6E68E8685D
:103B0000012306AA0F21B04700287FF41CAF6E687E
:103B1000E868012307AA1021B04700287FF413AFFB
:103B200001236E68E8680BAA1946B04700287FF4A5
:103B30000AAF9DF82C202E6860F3871201238DF8C0
:103B40002C20E8680BAA1946B04700287FF4FBAE8A
:103B50006E68E868012308AA0E21B04700287FF4A8
:103B6000F2AE6E68E86801230AAA5F21B047002818
:103B70007FF4E9AE01236E68E8680BAA1321B04711
:103B80009DF82C309B063FF5DEAE00287FF4DBAEBF
:103B900008AA01230E216E68E868B0479DF820202E
:103BA0002378C2F3800161F3C303237000287FF4FC
:103BB000CCAE6E68E86801230AAA5F21B047C2E66E
:103BC0002DE9F04F8FB06B4683E806009DF800604A
:103BD0009DF801109DF802809DF805E09DF828B041
:103BE000C6F34002C6F3000343EA4203C6F3C00231
:103BF00043EA8203C6F3001243EAC203C6F340124B
:103C000043EA0213C6F3801243EA4213C6F3C0121A
:103C100043EA8213C1F30002044643EAC2139DF84B
:103C200004008DF81430C1F3C002C1F3400C4CEA1B
:103C3000820CC8F3401AC8F380124AEA420AC0F361
:103C40000017C0F3C002C0F3801947EA4207C0F36F
:103C5000401242EA4902C1F300194CEAC90CC8F308
:103C6000C0194AEA890AC0F380099DF8033047EA7F
:103C70008907C0F3C01942EA8902C1F340194CEA2E
:103C8000091CC3F300094AEAC90AC0F3400947EA1C
:103C9000C907C0F3000047EA0010C1F380174CEADF
:103CA0004717C1F38005C1F3C011CEF3000947EAFD
:103CB0008117C3F3400142EAC9024AEA011AC8F374
:103CC000400CCEF3400142EA01114FEACC0CC8F39C
:103CD00080024CEA021CC3F380024AEA421AC3F390
:103CE000C01240EA4210C8F3C0024CEA421CC8F3BA
:103CF00000124CEAC21CC3F3C0024AEA821ACEF395
:103D00008009C3F3801240EA821041EA4919CEF3D8
:103D1000C002C8F3000147EAC11749EA8211CEF395
:103D2000001241EAC2120BF0020B8DF81C20C3F303
:103D30000012C3F3401340EAC31347EA0B074AEAF1
:103D4000C21A8DF828708DF810306768E0688DF819
:103D500008C08DF80CA001230BAA1321C6F380061E
:103D6000B847002840F077819DF82C102768E0685C
:103D700045EA060363F345118DF82C100BAA0123C5
:103D80001321B847002840F0668101236768E06886
:103D90000CAA1946B847002840F05D819DF83030E4
:103DA0002768E068022262F387138DF83030012320
:103DB0000CAA1946B847002840F04D812768E068F2
:103DC000012307AA0D21B847002840F04481276845
:103DD000E068012302AA0A21B847002840F03B818D
:103DE0002768E068012303AA0B21B847002840F0A8
:103DF00032812768E068012304AA0C21B847002813
:103E000040F0298101236768E0680CAA1946B84789
:103E1000002840F020819DF83030276860F3871338
:103E20008DF830300123E0680CAA1946B847002805
:103E300040F011819DF808109DF80C202768C1F30F
:103E40004013C1F3C00043EAD1130343C1F300118F
:103E50000B43C2F300010B43C2F340010B43C2F317
:103E600080010B43C2F3C0010B43C2F300110B43AB
:103E7000C2F340110B43C2F380110B439DF81010A5
:103E800043EAD21343EAD113C1F380121343C1F3BF
:103E900040121343C1F300121343C1F3C002134392
:103EA000C1F38002C1F3400013439DF81C2003437B
:103EB000C1F300010B43C2F300010B43C2F3400105
:103EC0000B43C2F380010B43C2F3C0010B43C2F3A7
:103ED00000110B43C2F340110B43C2F380110B439B
:103EE00043EAD2139DF82820E06863F341028DF87D
:103EF0002820012305AA0D21B847002840F0AB80F7
:103F00002768E06801230AAA5E21B847002840F02C
:103F1000A2806768E068012306AA0E21B84700283E
:103F200040F099809DF81830E06866F382038DF8C0
:103F30001830266806AA01230E21B047002840F059
:103F40008A806668E068012309AA5F21B0470028DB
:103F500040F081809DF82430E06865F300038DF81F
:103F60002430256809AA01235F21A847002872D1BF
:103F70006568E068012308AA5821A84700286AD18B
:103F800001460CAA2046FFF7C3FC002863D19DF828
:103F900030102568C1F38003C1F3C00043EAD11398
:103FA0000343C1F340000343C1F380100343C1F353
:103FB000401003439DF83100C1F300110B43C0F3DF
:103FC00040010B43C0F380010B43C0F3C0010B431E
:103FD000C0F300110B43C0F340110B43C0F380103A
:103FE0009DF81410034343EAD113C1F38000034347
:103FF000C1F380100343C1F340000343C1F3000049
:104000000343C1F340100343C1F3001003439DF881
:104010002800C1F3C0010B43C0F300010B43C0F300
:1040200080010B43C0F3C0010B43C0F300110B43ED
:10403000C0F340110B43C0F380110B439DF82010D7
:1040400043EAD01363F3C711E0688DF8201008AA83
:1040500001235821A8470FB0BDE8F08F70B5044682
:1040600084B001230D46C068666803AA1946B047AC
:1040700000284FD19DF80C20E0682668022363F3E6
:10408000871201238DF80C20194603AAB047002897
:1040900040D1E0686668012301AA0421B0470028E6
:1040A00038D1012302AA0521E0686668B0479DF86F
:1040B00004109DF80820C1F3001CC1F3401343EA2B
:1040C0004C03C1F3C00143EA8103C2F3001143EA88
:1040D000C103C2F3000C297843EA0C13C2F3C002F7
:1040E00021F03F0143EA42130B432B7090B90123A7
:1040F0006568E06803AA1946A84758B99DF80C20DE
:10410000256860F3871201238DF80C20E06803AA6C
:104110001946A84704B070BDF0B5044685B0012328
:104120000D46C068666803AA1946B047002840F0EB
:1041300094809DF80C30E0682768022666F38713A8
:104140008DF80C30012303AA1946B847002840F027
:1041500084803346E068666803AA4621B047002899
:104160007BD101236668E06802AA1946B04700289F
:1041700073D19DF80820266860F3871201238DF81B
:104180000820E06802AA1946B047002865D19DF8CA
:104190000C10C1F34002C1F300031343C1F38002CA
:1041A0001343C1F3C0021343C1F300121343C1F31D
:1041B00040121343C1F380109DF80D20034343EADE
:1041C000D113C2F300010B43C2F340010B43C2F30E
:1041D00080010B43C2F3C0010B43C2F300110B4338
:1041E000C2F340110B43C2F380110B4343EAD213D5
:1041F000DA0734D49DF800306FF3C3032E468DF8F0
:10420000003069462046FFF729FF9DF800301B0764
:1042100010D502A92046FFF737FBF0B99DF808300A
:10422000032B63D8DFE803F002342F2A012D38BFB7
:1042300001252E466568E068012301AA1021A847E0
:1042400058B99DF804302568E06866F307138DF8C7
:10425000043001AA01231021A84705B0F0BD0DF1DB
:1042600007012046FFF7CCFA0028F6D19DF8073069
:10427000032BBFD8DFE803F02F251B11042D38BF17
:1042800004252E46D6E7032D38BF03252E46D1E759
:10429000022D38BF02252E46CCE7032DAAD89DF863
:1042A00000306FF3C30304268DF80030A9E7022D18
:1042B000A0D89DF800306FF3C30303268DF80030BB
:1042C0009FE7012D96D89DF800306FF3C3030226B7
:1042D0008DF8003095E79DF80030012D6FF3C30392
:1042E0002E468DF8003038BF01268AE72E46A1E71A
:1042F000F0B5044685B001230D46C068666803AA80
:104300001946B047002840F083809DF80C30E068E3
:104310002768022666F387138DF80C30012303AA61
:104320001946B847002873D13346E068666803AA87
:104330004621B04700286BD101236668E06802AAD5
:104340001946B047002863D19DF80820266860F31D
:10435000871201238DF80820E06802AA1946B047A9
:10436000002855D19DF80C10C1F34002C1F30003A1
:104370001343C1F380021343C1F3C0021343C1F3DB
:1043800000121343C1F340121343C1F380109DF890
:104390000D20034343EAD113C2F300010B43C2F3E0
:1043A00040010B43C2F380010B43C2F3C0010B4336
:1043B000C2F300110B43C2F340110B43C2F380114F
:1043C0000B4343EAD213DA0732D49DF800306FF37F
:1043D000C3032E468DF8003069462046FFF73EFEA7
:1043E0009DF800301B0715D490B96568E06801237B
:1043F00001AA1121A84758B99DF804302568E06842
:1044000066F307138DF8043001AA01231121A84790
:1044100005B0F0BD02A92046FFF736FA0028F7D113
:104420009DF80830032B4FD8DFE803F0201B16114E
:104430000DF107012046FFF7E3F90028E8D19DF8C8
:104440000730032BC1D8DFE803F0342A2016042DEF
:1044500038BF04252E46C8E7032D38BF03252E4656
:10446000C3E7022D38BF02252E46BEE7012D38BF17
:1044700001252E46B9E7032DA7D89DF800306FF32C
:10448000C30304268DF80030A6E7022D9DD89DF8C1
:1044900000306FF3C30303268DF800309CE7012D35
:1044A00093D89DF800306FF3C30302268DF80030D7
:1044B00092E79DF80030012D6FF3C3032E468DF86F
:1044C000003038BF012687E72E468EE730B58BB027
:1044D000D0B92A4BDA6C42F00202DA64DB6C03F0EA
:1044E00002030093009B264A264C52F820100491A8
:1044F0000023012254F82000079304A9CDE90523E5
:1045000001F006FC0BB030BD01280AD11B4BDA6C60
:1045100042F02002DA64DB6C03F020030193019B7C
:10452000E1E70228DFD1154C164DA36D43F080530F
:10453000A365A36D03F080530293029B02F02EFF4C
:10454000E36CA86843F04003E364E36C03F04003CA
:1045500003934FF480620123CDE9042304A90022D0
:104560000023CDE90623039B01F0D2FBA8680122BA
:104570004FF4806101F09CFD0BB030BD0010024093
:10458000E8B30108FC000020022808D0074A084BC5
:1045900032F8201053F82000012201F089BD044BAD
:1045A000002298684FF4806101F082BDE8B30108F1
:1045B000FC000020022808D0074A084B32F82010DF
:1045C00053F82000002201F073BD044B01229868CB
:1045D0004FF4806101F06CBDE8B30108FC000020DD
:1045E00070B5002388B0CDE90233CDE90433244C03
:1045F0000693A36D43F08053A365A36D03F080532E
:1046000006460093009B0D4602F0C8FE46B9E36CD7
:1046100043F04003E364E36C03F040030193019B28
:104620001DB1012D12D008B070BD164800EB8606F2
:1046300002220023CDE90223F0680022022302A90E
:10464000CDE9042301F064FB08B070BD0D480E4BAA
:1046500000EB86060222CDE90223F068022302A9BC
:104660000022CDE9042301F053FB00220F21072093
:1046700001F0D4FA072001F00FFB08B070BD00BFB5
:1046800000100240FC00002000002110014806F04C
:104690001FBC00BF900E0020094A0A4808B5936D60
:1046A00023F40013C021936501F04CFC064801F08F
:1046B00017FE002814BF6FF00700002008BD00BFE0
:1046C0000010024000040048E40E002000B585B050
:1046D00084464FF47A70CDE9002302900A46012304
:1046E0005FFA8CF1054801F015FE002814BF6FF049
:1046F0000700002005B05DF804FB00BFE40E0020B9
:1047000000B585B084464FF47A70CDE9002302905D
:104710000A4601236146054801F02CFF002814BF1A
:104720006FF00700002005B05DF804FBE40E0020E8
:10473000094A0A4808B5136E23F480534FF46041C8
:10474000136601F0FFFB064805F032FB002814BF9A
:104750006FF00700002008BD001002400010004864
:104760007C0F002010B50C464FF47A7301462246A8
:10477000044805F033FB00280CBF20466FF005000D
:1047800010BD00BF7C0F002010B50C464FF47A73AB
:1047900001462246044805F07FFE00280CBF204653
:1047A0006FF0050010BD00BF7C0F002010B582B077
:1047B000144684464FF47A730A46009361462346B2
:1047C000044805F089FC00280CBF20466FF0050066
:1047D00002B010BDE00F0020094A0A4808B5936DE9
:1047E00023F400432821936501F0ACFB064805F053
:1047F000DFFA002814BF6FF00700002008BD00BFDB
:1048000000100240000400484410002010B50C467F
:104810004FF47A7301462246044805F0DFFA002877
:104820000CBF20466FF0050010BD00BF44100020F3
:1048300001F0CAB910B50F4C4FF482710022C0E9E3
:1048400000414FF4E0644FF40071C0E9022481613B
:1048500018240721C0E90422C0E90742C0E909225F
:10486000C0E90B12426305F02BFA003818BF012093
:1048700010BD00BF0030014010B51B4C1B4B44F86D
:10488000983F88B0204606F009F810B1002008B023
:1048900010BD174B17481A6E42F480521A661A6EF2
:1048A00002F480520092009ADA6C42F01002DA644C
:1048B000DB6C03F0100301934FF460420223CDE957
:1048C000022300220323CDE9042302A90523019A30
:1048D000069301F01DFA2046FFF7ACFF0028D5D063
:1048E0006FF00700D3E700BFE40E00200030014066
:1048F000001002400010004810B50F4C4FF48271B8
:104900000022C0E900414FF4E0640121C0E9022423
:10491000C0E904214FF400743021C0E906410721A9
:10492000C0E90822C0E90A21C0E90C2205F0C8F953
:10493000003818BF012010BD003800402DE9704339
:10494000294D2A4B2C468AB044F8FC3F204605F0FE
:10495000A5FF48B10020D5F8FC20136843F04003C0
:1049600013600AB0BDE87083214B22489A6D42F46F
:1049700080429A659A6D02F480420192019ADA6C43
:1049800042F00402DA64DA6C02F004020292029A43
:10499000DA6C42F00802DA64DB6C03F0080303937C
:1049A0000A22052604A902234FF000084FF003094C
:1049B000CDE90423CDE90689039B089601F0A8F907
:1049C0000D4808960822022304A9CDE90689CDE9FD
:1049D000042301F09DF92046FFF78EFF0028B9D08F
:1049E0006FF00700B7E700BFE40E0020003800407A
:1049F00000100240000C00480008004815494FF420
:104A0000827210B5C0E900124FF400414FF4E06229
:104A1000C0E902124FF4007138220023C0E90612E7
:104A200004460722C0E90A32C0E90433C0E908336A
:104A3000C0E90C3305F044F923681A6842F4804257
:104A40001A601A68003842F0400218BF01201A604C
:104A500010BD00BF003C004010B51B4B1B4AC3F803
:104A6000602103F5B07488B0204605F017FF10B13F
:104A7000002008B010BD164B16489A6D42F4004253
:104A80009A659A6D02F400420092009ADA6C42F044
:104A90000202DA64DB6C03F0020301932822022392
:104AA000CDE9022300220323CDE9042302A9062332
:104AB000019A069301F02CF92046FFF79FFF00288A
:104AC000D6D06FF00700D4E7E40E0020003C004091
:104AD0000010024000040048114A124B70B5002635
:104AE000C0E900230123C0E90263C0E90466C0E90C
:104AF00006660662044601F09DFB314605462046E7
:104B000001F070FE0543EDB2AD1B3146204618BFE3
:104B1000012501F091FEB0420CBF2846012070BD76
:104B200000540040FFEAC00030B51C4C1C4B236011
:104B300089B0204601F052FE10B1002009B030BD0E
:104B4000184D1948EB6C43F00203EB64EB6C03F077
:104B500002030093C0221223CDE902230122032382
:104B6000CDE9042302A90423009A069301F0D0F8AA
:104B7000AB6D43F40013AB65AB6D03F4001301930D
:104B80002046019BFFF7A8FF014620B9204601F00F
:104B900029FE0028D1D06FF00700CFE7E40E0020F7
:104BA0000054004000100240000400482DE9F0438A
:104BB0000C468FB00546002872D001286BD19D4B62
:104BC0000693002308939C4B9C4E07939C4B0B939E
:104BD0009C4B0A930DF118089B4B0C9306F134077C
:104BE000BB23414638468DF82430FDF79FFC002852
:104BF00040F0CA800DF107013846FDF71FFA002882
:104C000040F0C2809DF80730B32B40F0BD8002A970
:104C10003846FDF7CBF99DF809109DF80A009DF87C
:104C2000082077674B0043EA80031343F36614F0D0
:104C30000109864BF36702D0012A00F0CE80A2075B
:104C400040F18D803846012900F09780DB684146AD
:104C50009847002840F0EA809DF818709DF81A30B7
:104C6000A7F10107012BB7FA87F79DF819304FEA32
:104C7000571708BF47F00407012B59D0B9F1000FAF
:104C80005BD1A10700F18580630700F194800020CB
:104C90000FB0BDE8F0836FF001000FB0BDE8F08306
:104CA000644B0693644B654E0793654B0B930DF174
:104CB0001808644B0890BF220A934146624B8DF856
:104CC000242030460C93FCF719FB00285CD10DF131
:104CD00007013046FCF77EF9002855D19DF80730D2
:104CE000BC2B51D102A93046FCF7F8F89DF80A1008
:104CF0009DF809009DF8082036678B0043EA4003C1
:104D00001343B36614F00109514BB36701D0012A74
:104D100072D0670726D53046012997D14D4A1B68C6
:104D2000C6F88820984700282ED1B36F306F8DE7E2
:104D300047F00207B9F1000FA3D0F807A1D506EBA1
:104D40008503186F05EB450306EB8303D3F880302A
:104D50001B689847002894D06FF004009DE73E48F8
:104D60003A4B73E735483A4B70E7A1070CD59DF8ED
:104D70000930012B08D1F36F706F384A1B68C6F8F1
:104D800090209847002845D04FF0FF300FB0BDE885
:104D9000F083BA077FF578AF06EB8503186F05EB54
:104DA000450306EB8303D3F884301B68984700283B
:104DB0003FF46AAFD0E77C077FF569AF05EB4503A9
:104DC00006EB830306EB8505D3F88830286F1B6854
:104DD000984700283FF45BAFBEE7214A1B68C6F83E
:104DE0008C20384698470028BFD1A00712D59DF8DF
:104DF0000910F36F706F26E71A4A1B68C6F8802007
:104E00003046984748B962078FD59DF80A10B36FAE
:104E1000306F81E7F36F706F18E76307B4D59DF8C3
:104E20000A30012BB0D1B36F306F77E76FF0060017
:104E300033E700BF294B000899460008A81000205E
:104E400001470008CD4600083148000894000020C2
:104E50002800002014000020DC100020800000202A
:104E60006C0000200000002001280CD808B5074B7A
:104E700003EB8000836F006F5B689847002818BFC2
:104E80006FF0040008BD6FF001007047A81000200B
:104E9000012820D8114A02EB800C08B5DCF86830F4
:104EA00001EA030E31EA030312D10D4951F82E1025
:104EB00000EB40030B4402EB8303DCF87000D3F8F3
:104EC00080301B689847002818BF6FF0040008BDA9
:104ED0006FF0010008BD6FF001007047A8100020BE
:104EE000FCB30108012820D8114A02EB800C08B558
:104EF000DCF8683001EA030E31EA030312D10D49F0
:104F000051F82E1000EB40030B4402EB8303DCF856
:104F10007000D3F880305B689847002818BF6FF0A6
:104F2000040008BD6FF0010008BD6FF0010070477C
:104F3000A8100020FCB30108012821D810B5124C9C
:104F400004EB800CDCF8683001EA030E31EA03035D
:104F500013D111460D4A52F82E2000EB40031344A2
:104F600004EB8303DCF87000D3F88030DB689847EB
:104F7000002818BF6FF0040010BD6FF0010010BDD5
:104F80006FF00100704700BFA8100020FCB30108BB
:104F9000012821D810B5124C04EB800CDCF86830E5
:104FA00001EA030E31EA030313D111460D4A52F808
:104FB0002E2000EB4003134404EB8303DCF8700065
:104FC000D3F880301B699847002818BF6FF00400A1
:104FD00010BD6FF0010010BD6FF00100704700BF01
:104FE000A8100020FCB3010830B583B00846154670
:104FF0008DF8070000224FF400414FF090401C460E
:1050000001F056F801210DF10700FFF7FFFB2146E3
:105010000128284614BF6FF005050025FFF7F6FBB1
:105020000122A0424FF400414FF0904018BF6FF0B2
:10503000050501F03DF8284603B030BD08B5FFF77F
:10504000CBFB002818BF6FF0050008BD0000000072
:10505000174B00B5DA6C42F00102DA64DB6C89B000
:105060009FED117B03F00103019302A900224FF091
:10507000904000238DED027BCDE90423019B00F0DD
:1050800047FE01224FF400414FF0904001F010F82C
:10509000FFF7E2FC002818BF6FF0050009B05DF8CB
:1050A00004FB00BFAFF3008000800000010000009F
:1050B0000010024030B583B08C46154611488DF87B
:1050C00007C000224FF480511C4600F0F1FF01217F
:1050D0000DF10700FFF746FB21460128284614BFC3
:1050E0006FF005050025FFF73DFB0122A0424FF4BC
:1050F0008051044818BF6FF0050500F0D9FF28461D
:1051000003B030BD0010004830B583B061F07F01BE
:1051100015468DF80710002210484FF480511C46A8
:1051200000F0C6FF01210DF10700FFF71BFB214630
:105130000128284614BF6FF005050025FFF724FB62
:105140000122A0424FF48051044818BF6FF00505BA
:1051500000F0AEFF284603B030BD00BF001000488D
:1051600008B5FFF7E5FA002818BF6FF0050008BD85
:10517000154B1648DA6C00B542F01002DA64DB6CAD
:1051800089B09FED0F7B03F01003019302A9002269
:1051900000238DED027BCDE90423019B00F0B8FDD7
:1051A00001224FF48051094800F082FFFFF764FBB1
:1051B000002818BF6FF0050009B05DF804FB00BFC0
:1051C0000010000001000000001002400010004824
:1051D000F8B53C4C0E4615464FF4004100224FF006
:1051E00090401F4666F07F0600F062FF2168F6B22D
:1051F00088688007FCD50E73886810F4C05FFBD107
:1052000088680206FCD40B6823F040030B600B682F
:10521000012F23F480430B6039D972B621680B68E3
:10522000013F43F040030B6015FA87F02A468B6874
:10523000DB07FCD50B7B02F8013B82422168F6D1EB
:10524000BFB2BFF34F8FBFF34F8F2268136823F0B5
:105250004003136062B622689368DE07FCD5137BB7
:10526000EB55226893681806FCD401224FF40041E4
:105270004FF0904000F01CFF23681A6842F480420F
:105280001A601A6842F040021A600020F8BD72B637
:105290002268136843F040031360BFF34F8FBFF3DE
:1052A0004F8F2268136823F04003136062B62268B0
:1052B0009368D907FCD5137B2B70226893681B0673
:1052C000FCD4D2E7441000202DE9F0430F4691B002
:1052D0000446002878D0012871D1A34B08930023FD
:1052E000A24D8DF82C30A24B0993A24B0D930DF1DA
:1052F0002008A14B0A9005F134060C9341469F4BC0
:105300000E933046FEF720F8002840F010810DF192
:1053100003013046FDF732FB002840F008819DF87C
:1053200003306C2B40F0038101A93046FDF796FA5B
:105330009DF804209DF806009DF80510AE67530007
:1053400043EA80030B432B67B8078D4BC5F88030C9
:1053500002D5012A00F0F08017F0010900F0D48096
:105360003046012900F0DD80DB684146984700287F
:1053700040F0F7809DF820309DF82100012B01BFFF
:1053800006230322022607211FBF04230122002631
:105390000521012808BF16469DF8222008BF0B46AC
:1053A000012A08BF1E46B9F1000F6CD1B9077CD4A1
:1053B0007B0700F18B80002011B0BDE8F0836FF017
:1053C000010011B0BDE8F0836E4B08936E4B674D42
:1053D00009936E4B0D930DF120086D4B8DF82C0049
:1053E00002220C934146654B0A9228460E93FCF725
:1053F00083FC002840F09B800DF103012846FCF758
:10540000ADFA002840F093809DF80330402B40F027
:105410008E8001A92846FCF719F99DF806209DF811
:1054200004009DF805106D67930043EA40030B43A9
:10543000EB667907574BEB675AD44C48554BDB6802
:1054400041469847002840F08C809DF820309DF818
:1054500021C09DF82220012B01BF06230226072030
:1054600003211FBF0520042301210026BCF1010FE9
:1054700004BF03460E4607F00109012A08BF1E4675
:10548000B9F1000F92D0F00790D505EB8403586F67
:1054900004EB440305EB8303D3F884301B6898477F
:1054A000002883D06FF004008BE7B20780D505EBAE
:1054B0008403586F04EB440305EB8303D3F888306F
:1054C0001B68984700283FF473AFEBE776077FF53A
:1054D00072AF04EB440305EB830305EB8404D3F8BC
:1054E0008C30606F1B68984700283FF464AFD9E7A1
:1054F000012AA2D1284A1B68C5F88C202846984763
:10550000A8B9EB6F686F9AE724481D4B2CE717F09A
:1055100001090CD09DF80530012B08D1D5F8803059
:10552000A86F1F4A1B68C5F890209847A8B14FF094
:10553000FF3011B0BDE8F0831A4A1B68C5F894200B
:10554000304698470028E2D117F0010905D09DF8B0
:105550000510D5F88030A86F03E7D5F88030A86F24
:1055600002E76FF006002CE771510008401100209F
:105570006151000809510008B55000083148000881
:10558000EC000020515000083D500008D1510008A7
:10559000E94F00085C000020380000207411002052
:1055A000A4000020C800002001280CD808B5074B33
:1055B00003EB8000C36F406F5B689847002818BFFB
:1055C0006FF0040008BD6FF001007047401100202B
:1055D000012820D8114A02EB800C08B5DCF86C30A9
:1055E00001EA030E31EA030312D10D4951F82E10DE
:1055F00000EB40030B4402EB8303DCF87400D3F8A8
:1056000084301B689847002818BF6FF0040008BD5D
:105610006FF0010008BD6FF00100704740110020DD
:1056200010B40108012820D8114A02EB800C08B5FB
:10563000DCF86C3001EA030E31EA030312D10D49A4
:1056400051F82E1000EB40030B4402EB8303DCF80F
:105650007400D3F884305B689847002818BF6FF057
:10566000040008BD6FF0010008BD6FF00100704735
:105670004011002010B40108012821D810B5124CA7
:1056800004EB800CDCF86C3001EA030E31EA030312
:1056900013D111460D4A52F82E2000EB400313445B
:1056A00004EB8303DCF87400D3F88430DB6998479B
:1056B000002818BF6FF0040010BD6FF0010010BD8E
:1056C0006FF00100704700BF4011002010B40108C6
:1056D000012821D810B5124C04EB800CDCF86C309A
:1056E00001EA030E31EA030313D111460D4A52F8C1
:1056F0002E2000EB4003134404EB8303DCF874001A
:10570000D3F88430DB689847002818BF6FF0040096
:1057100010BD6FF0010010BD6FF00100704700BFB9
:105720004011002010B40108012821D810B5124CF6
:1057300004EB800CDCF86C3001EA030E31EA030361
:1057400013D111460D4A52F82E2000EB40031344AA
:1057500004EB8303DCF87400D3F884305B6998476A
:10576000002818BF6FF0040010BD6FF0010010BDDD
:105770006FF00100704700BF4011002010B4010815
:10578000012821D810B5124C04EB800CDCF86C30E9
:1057900001EA030E31EA030313D111460D4A52F810
:1057A0002E2000EB4003134404EB8303DCF8740069
:1057B000D3F884301B699847002818BF6FF00400A5
:1057C00010BD6FF0010010BD6FF00100704700BF09
:1057D0004011002010B40108012821D810B5124C46
:1057E00004EB800CDCF86C3001EA030E31EA0303B1
:1057F00013D111460D4A52F82E2000EB40031344FA
:1058000004EB8303DCF87400D3F884309B69984779
:10581000002818BF6FF0040010BD6FF0010010BD2C
:105820006FF00100704700BF4011002010B4010864
:1058300008B558B1012806D1094B5868FDF7C6FDD7
:1058400050B9002008BD6FF0010008BD044B186876
:10585000FCF79EFA0028F4D06FF0040008BD00BFEA
:10586000B411002008B558B1012806D1094B586879
:10587000FDF7B6FD50B9002008BD6FF0010008BD6E
:10588000044B1868FCF79AFA0028F4D06FF0040073
:1058900008BD00BFB4110020012809D108B5064B8E
:1058A0005868FDF7AFFD002818BF6FF0040008BD71
:1058B0006FF00100704700BFB411002000B583B045
:1058C0006B46012883E806000CD1084893E80600DF
:1058D0004068FDF7A5FD002818BF6FF0040003B075
:1058E0005DF804FB6FF00100F9E700BFB411002080
:1058F000244B2548DA6C70B542F01002DA64DB6C98
:1059000088B003F010030193002202A9302401257E
:105910000023CDE90245CDE90423019B1B4C00F097
:10592000F7F919480122102100F0C2FB16480022A5
:10593000202100F0BDFB164B236000254FF4804270
:1059400002230126134863614FF48051C4E90155D5
:10595000C4E90325A66100F0A5FB40B984F8806086
:1059600094F88030012B08D0022008B070BD84F874
:10597000805094F88030012BF6D1044804F06EF882
:1059800008B070BD0010024000100048DC1100207B
:105990000024065000040048844608B50448134615
:1059A0000A46614603F062FA003818BF012008BDBC
:1059B000DC110020844608B5044813460A466146B7
:1059C00003F0CEFA003818BF012008BDDC1100201A
:1059D000334B3448DA6C2DE9F04142F00202DA64CC
:1059E000DA6C314F8AB002F002020092009ADA6C4F
:1059F00008263243DA64DA6C32400192019ADA6C9A
:105A000042F00402DA64DA6C02F004020292029AB2
:105A1000DA6C42F48002DA64DB6C089603F48003EB
:105A200000240325039304A94FF440720223CDE917
:105A300004234FF00C08039BCDE9064500F068F9FC
:105A400004A938464FF4F8520223CDE90423CDE9E6
:105A50000645CDF8208000F05BF904A9042202235A
:105A60001248CDF82080CDE90423CDE9064500F0A9
:105A70004FF9022304A93846C022CDE90423CDE919
:105A80000645089600F044F900220521312000F077
:105A9000C5F8312000F000F90AB0BDE8F08100BF80
:105AA000001002400004004800080048000C0048B4
:105AB00008B5034804F036F8043818BF012008BDC3
:105AC000DC1100200146014803F014BFDC11002066
:105AD0000246012A024818BF0022202100F0E8BA3D
